{
  "_format": "hh-sol-artifact-1",
  "contractName": "Ballot",
  "sourceName": "contracts/Ballot.sol",
  "abi": [
    {
      "inputs": [
        {
          "internalType": "bytes32[]",
          "name": "proposalNames",
          "type": "bytes32[]"
        }
      ],
      "stateMutability": "nonpayable",
      "type": "constructor"
    },
    {
      "inputs": [],
      "name": "chairperson",
      "outputs": [
        {
          "internalType": "address",
          "name": "",
          "type": "address"
        }
      ],
      "stateMutability": "view",
      "type": "function"
    },
    {
      "inputs": [
        {
          "internalType": "address",
          "name": "to",
          "type": "address"
        }
      ],
      "name": "delegate",
      "outputs": [],
      "stateMutability": "nonpayable",
      "type": "function"
    },
    {
      "inputs": [],
      "name": "getAllProposals",
      "outputs": [
        {
          "components": [
            {
              "internalType": "bytes32",
              "name": "name",
              "type": "bytes32"
            },
            {
              "internalType": "uint256",
              "name": "voteCount",
              "type": "uint256"
            }
          ],
          "internalType": "struct Ballot.Proposal[]",
          "name": "",
          "type": "tuple[]"
        }
      ],
      "stateMutability": "view",
      "type": "function"
    },
    {
      "inputs": [
        {
          "internalType": "address",
          "name": "voter",
          "type": "address"
        }
      ],
      "name": "giveRightToVote",
      "outputs": [],
      "stateMutability": "nonpayable",
      "type": "function"
    },
    {
      "inputs": [
        {
          "internalType": "uint256",
          "name": "",
          "type": "uint256"
        }
      ],
      "name": "proposals",
      "outputs": [
        {
          "internalType": "bytes32",
          "name": "name",
          "type": "bytes32"
        },
        {
          "internalType": "uint256",
          "name": "voteCount",
          "type": "uint256"
        }
      ],
      "stateMutability": "view",
      "type": "function"
    },
    {
      "inputs": [
        {
          "internalType": "uint256",
          "name": "proposal",
          "type": "uint256"
        }
      ],
      "name": "vote",
      "outputs": [],
      "stateMutability": "nonpayable",
      "type": "function"
    },
    {
      "inputs": [
        {
          "internalType": "address",
          "name": "",
          "type": "address"
        }
      ],
      "name": "voters",
      "outputs": [
        {
          "internalType": "uint256",
          "name": "weight",
          "type": "uint256"
        },
        {
          "internalType": "bool",
          "name": "voted",
          "type": "bool"
        },
        {
          "internalType": "address",
          "name": "delegate",
          "type": "address"
        },
        {
          "internalType": "uint256",
          "name": "vote",
          "type": "uint256"
        }
      ],
      "stateMutability": "view",
      "type": "function"
    },
    {
      "inputs": [],
      "name": "winnerName",
      "outputs": [
        {
          "internalType": "bytes32",
          "name": "winnerName_",
          "type": "bytes32"
        }
      ],
      "stateMutability": "view",
      "type": "function"
    },
    {
      "inputs": [],
      "name": "winningProposal",
      "outputs": [
        {
          "internalType": "uint256",
          "name": "winningProposal_",
          "type": "uint256"
        }
      ],
      "stateMutability": "view",
      "type": "function"
    }
  ],
  "bytecode": "0x60806040523480156200001157600080fd5b50604051620017763803806200177683398181016040528101906200003791906200025b565b336000806101000a81548173ffffffffffffffffffffffffffffffffffffffff021916908373ffffffffffffffffffffffffffffffffffffffff16021790555060018060008060009054906101000a900473ffffffffffffffffffffffffffffffffffffffff1673ffffffffffffffffffffffffffffffffffffffff1673ffffffffffffffffffffffffffffffffffffffff1681526020019081526020016000206000018190555060005b81518110156200019a576002604051806040016040528084848151811062000133577f4e487b7100000000000000000000000000000000000000000000000000000000600052603260045260246000fd5b6020026020010151815260200160008152509080600181540180825580915050600190039060005260206000209060020201600090919091909150600082015181600001556020820151816001015550508080620001919062000342565b915050620000e2565b505062000419565b6000620001b9620001b384620002c9565b620002a0565b90508083825260208201905082856020860282011115620001d957600080fd5b60005b858110156200020d5781620001f2888262000244565b845260208401935060208301925050600181019050620001dc565b5050509392505050565b600082601f8301126200022957600080fd5b81516200023b848260208601620001a2565b91505092915050565b6000815190506200025581620003ff565b92915050565b6000602082840312156200026e57600080fd5b600082015167ffffffffffffffff8111156200028957600080fd5b620002978482850162000217565b91505092915050565b6000620002ac620002bf565b9050620002ba82826200030c565b919050565b6000604051905090565b600067ffffffffffffffff821115620002e757620002e6620003bf565b5b602082029050602081019050919050565b6000819050919050565b6000819050919050565b6200031782620003ee565b810181811067ffffffffffffffff82111715620003395762000338620003bf565b5b80604052505050565b60006200034f8262000302565b91507fffffffffffffffffffffffffffffffffffffffffffffffffffffffffffffffff82141562000385576200038462000390565b5b600182019050919050565b7f4e487b7100000000000000000000000000000000000000000000000000000000600052601160045260246000fd5b7f4e487b7100000000000000000000000000000000000000000000000000000000600052604160045260246000fd5b6000601f19601f8301169050919050565b6200040a81620002f8565b81146200041657600080fd5b50565b61134d80620004296000396000f3fe608060405234801561001057600080fd5b50600436106100935760003560e01c8063609ff1bd11610066578063609ff1bd1461011f5780639e7b8d611461013d578063a3ec138d14610159578063cceb68f51461018c578063e2ba53f0146101aa57610093565b80630121b93f14610098578063013cf08b146100b45780632e4176cf146100e55780635c19a95c14610103575b600080fd5b6100b260048036038101906100ad9190610c5c565b6101c8565b005b6100ce60048036038101906100c99190610c5c565b610335565b6040516100dc929190610ed1565b60405180910390f35b6100ed610369565b6040516100fa9190610e79565b60405180910390f35b61011d60048036038101906101189190610c33565b61038d565b005b61012761074f565b6040516101349190610fda565b60405180910390f35b61015760048036038101906101529190610c33565b610823565b005b610173600480360381019061016e9190610c33565b6109da565b6040516101839493929190610ff5565b60405180910390f35b610194610a37565b6040516101a19190610e94565b60405180910390f35b6101b2610b92565b6040516101bf9190610eb6565b60405180910390f35b6000600160003373ffffffffffffffffffffffffffffffffffffffff1673ffffffffffffffffffffffffffffffffffffffff1681526020019081526020016000209050600081600001541415610253576040517f08c379a000000000000000000000000000000000000000000000000000000000815260040161024a90610efa565b60405180910390fd5b8060010160009054906101000a900460ff16156102a5576040517f08c379a000000000000000000000000000000000000000000000000000000000815260040161029c90610f1a565b60405180910390fd5b60018160010160006101000a81548160ff02191690831515021790555081816002018190555080600001546002838154811061030a577f4e487b7100000000000000000000000000000000000000000000000000000000600052603260045260246000fd5b9060005260206000209060020201600101600082825461032a9190611084565b925050819055505050565b6002818154811061034557600080fd5b90600052602060002090600202016000915090508060000154908060010154905082565b60008054906101000a900473ffffffffffffffffffffffffffffffffffffffff1681565b6000600160003373ffffffffffffffffffffffffffffffffffffffff1673ffffffffffffffffffffffffffffffffffffffff16815260200190815260200160002090508060010160009054906101000a900460ff1615610422576040517f08c379a000000000000000000000000000000000000000000000000000000000815260040161041990610f3a565b60405180910390fd5b3373ffffffffffffffffffffffffffffffffffffffff168273ffffffffffffffffffffffffffffffffffffffff161415610491576040517f08c379a000000000000000000000000000000000000000000000000000000000815260040161048890610fba565b60405180910390fd5b5b600073ffffffffffffffffffffffffffffffffffffffff16600160008473ffffffffffffffffffffffffffffffffffffffff1673ffffffffffffffffffffffffffffffffffffffff16815260200190815260200160002060010160019054906101000a900473ffffffffffffffffffffffffffffffffffffffff1673ffffffffffffffffffffffffffffffffffffffff161461060157600160008373ffffffffffffffffffffffffffffffffffffffff1673ffffffffffffffffffffffffffffffffffffffff16815260200190815260200160002060010160019054906101000a900473ffffffffffffffffffffffffffffffffffffffff1691503373ffffffffffffffffffffffffffffffffffffffff168273ffffffffffffffffffffffffffffffffffffffff1614156105fc576040517f08c379a00000000000000000000000000000000000000000000000000000000081526004016105f390610f7a565b60405180910390fd5b610492565b60018160010160006101000a81548160ff021916908315150217905550818160010160016101000a81548173ffffffffffffffffffffffffffffffffffffffff021916908373ffffffffffffffffffffffffffffffffffffffff1602179055506000600160008473ffffffffffffffffffffffffffffffffffffffff1673ffffffffffffffffffffffffffffffffffffffff16815260200190815260200160002090508060010160009054906101000a900460ff161561072a57816000015460028260020154815481106106fe577f4e487b7100000000000000000000000000000000000000000000000000000000600052603260045260246000fd5b9060005260206000209060020201600101600082825461071e9190611084565b9250508190555061074a565b81600001548160000160008282546107429190611084565b925050819055505b505050565b6000806000905060005b60028054905081101561081e5781600282815481106107a1577f4e487b7100000000000000000000000000000000000000000000000000000000600052603260045260246000fd5b906000526020600020906002020160010154111561080b57600281815481106107f3577f4e487b7100000000000000000000000000000000000000000000000000000000600052603260045260246000fd5b90600052602060002090600202016001015491508092505b80806108169061112c565b915050610759565b505090565b60008054906101000a900473ffffffffffffffffffffffffffffffffffffffff1673ffffffffffffffffffffffffffffffffffffffff163373ffffffffffffffffffffffffffffffffffffffff16146108b1576040517f08c379a00000000000000000000000000000000000000000000000000000000081526004016108a890610f5a565b60405180910390fd5b600160008273ffffffffffffffffffffffffffffffffffffffff1673ffffffffffffffffffffffffffffffffffffffff16815260200190815260200160002060010160009054906101000a900460ff1615610941576040517f08c379a000000000000000000000000000000000000000000000000000000000815260040161093890610f9a565b60405180910390fd5b6000600160008373ffffffffffffffffffffffffffffffffffffffff1673ffffffffffffffffffffffffffffffffffffffff168152602001908152602001600020600001541461099057600080fd5b60018060008373ffffffffffffffffffffffffffffffffffffffff1673ffffffffffffffffffffffffffffffffffffffff1681526020019081526020016000206000018190555050565b60016020528060005260406000206000915090508060000154908060010160009054906101000a900460ff16908060010160019054906101000a900473ffffffffffffffffffffffffffffffffffffffff16908060020154905084565b6060600060028054905067ffffffffffffffff811115610a80577f4e487b7100000000000000000000000000000000000000000000000000000000600052604160045260246000fd5b604051908082528060200260200182016040528015610ab957816020015b610aa6610bec565b815260200190600190039081610a9e5790505b50905060005b600280549050811015610b8a5760028181548110610b06577f4e487b7100000000000000000000000000000000000000000000000000000000600052603260045260246000fd5b906000526020600020906002020160405180604001604052908160008201548152602001600182015481525050828281518110610b6c577f4e487b7100000000000000000000000000000000000000000000000000000000600052603260045260246000fd5b60200260200101819052508080610b829061112c565b915050610abf565b508091505090565b60006002610b9e61074f565b81548110610bd5577f4e487b7100000000000000000000000000000000000000000000000000000000600052603260045260246000fd5b906000526020600020906002020160000154905090565b604051806040016040528060008019168152602001600081525090565b600081359050610c18816112e9565b92915050565b600081359050610c2d81611300565b92915050565b600060208284031215610c4557600080fd5b6000610c5384828501610c09565b91505092915050565b600060208284031215610c6e57600080fd5b6000610c7c84828501610c1e565b91505092915050565b6000610c918383610e2c565b60408301905092915050565b610ca6816110da565b82525050565b6000610cb78261104a565b610cc18185611062565b9350610ccc8361103a565b8060005b83811015610cfd578151610ce48882610c85565b9750610cef83611055565b925050600181019050610cd0565b5085935050505092915050565b610d13816110ec565b82525050565b610d22816110f8565b82525050565b610d31816110f8565b82525050565b6000610d44601483611073565b9150610d4f826111a4565b602082019050919050565b6000610d67600e83611073565b9150610d72826111cd565b602082019050919050565b6000610d8a601283611073565b9150610d95826111f6565b602082019050919050565b6000610dad602883611073565b9150610db88261121f565b604082019050919050565b6000610dd0601983611073565b9150610ddb8261126e565b602082019050919050565b6000610df3601883611073565b9150610dfe82611297565b602082019050919050565b6000610e16601e83611073565b9150610e21826112c0565b602082019050919050565b604082016000820151610e426000850182610d19565b506020820151610e556020850182610e5b565b50505050565b610e6481611122565b82525050565b610e7381611122565b82525050565b6000602082019050610e8e6000830184610c9d565b92915050565b60006020820190508181036000830152610eae8184610cac565b905092915050565b6000602082019050610ecb6000830184610d28565b92915050565b6000604082019050610ee66000830185610d28565b610ef36020830184610e6a565b9392505050565b60006020820190508181036000830152610f1381610d37565b9050919050565b60006020820190508181036000830152610f3381610d5a565b9050919050565b60006020820190508181036000830152610f5381610d7d565b9050919050565b60006020820190508181036000830152610f7381610da0565b9050919050565b60006020820190508181036000830152610f9381610dc3565b9050919050565b60006020820190508181036000830152610fb381610de6565b9050919050565b60006020820190508181036000830152610fd381610e09565b9050919050565b6000602082019050610fef6000830184610e6a565b92915050565b600060808201905061100a6000830187610e6a565b6110176020830186610d0a565b6110246040830185610c9d565b6110316060830184610e6a565b95945050505050565b6000819050602082019050919050565b600081519050919050565b6000602082019050919050565b600082825260208201905092915050565b600082825260208201905092915050565b600061108f82611122565b915061109a83611122565b9250827fffffffffffffffffffffffffffffffffffffffffffffffffffffffffffffffff038211156110cf576110ce611175565b5b828201905092915050565b60006110e582611102565b9050919050565b60008115159050919050565b6000819050919050565b600073ffffffffffffffffffffffffffffffffffffffff82169050919050565b6000819050919050565b600061113782611122565b91507fffffffffffffffffffffffffffffffffffffffffffffffffffffffffffffffff82141561116a57611169611175565b5b600182019050919050565b7f4e487b7100000000000000000000000000000000000000000000000000000000600052601160045260246000fd5b7f486173206e6f20726967687420746f20766f7465000000000000000000000000600082015250565b7f416c726561647920766f7465642e000000000000000000000000000000000000600082015250565b7f596f7520616c726561647920766f7465642e0000000000000000000000000000600082015250565b7f4f6e6c79206368616972706572736f6e2063616e20676976652072696768742060008201527f746f20766f74652e000000000000000000000000000000000000000000000000602082015250565b7f466f756e64206c6f6f7020696e2064656c65676174696f6e2e00000000000000600082015250565b7f54686520766f74657220616c726561647920766f7465642e0000000000000000600082015250565b7f53656c662d64656c65676174696f6e20697320646973616c6c6f7765642e0000600082015250565b6112f2816110da565b81146112fd57600080fd5b50565b61130981611122565b811461131457600080fd5b5056fea264697066735822122089971118bf69fde24f7d502e4c62480e4436f0ea2a6bdc6e11cfc8fee6ea7b2664736f6c63430008040033",
  "linkReferences": {},
  "deployedLinkReferences": {}
}